{
  "contractName": "UserCertification",
  "abi": [
    {
      "inputs": [],
      "payable": false,
      "stateMutability": "nonpayable",
      "type": "constructor"
    },
    {
      "constant": true,
      "inputs": [
        {
          "internalType": "address",
          "name": "",
          "type": "address"
        }
      ],
      "name": "institutionInfo",
      "outputs": [
        {
          "internalType": "string",
          "name": "name",
          "type": "string"
        },
        {
          "internalType": "string",
          "name": "licenseValue",
          "type": "string"
        }
      ],
      "payable": false,
      "stateMutability": "view",
      "type": "function"
    },
    {
      "constant": false,
      "inputs": [
        {
          "internalType": "string",
          "name": "_name",
          "type": "string"
        }
      ],
      "name": "setUser",
      "outputs": [],
      "payable": false,
      "stateMutability": "nonpayable",
      "type": "function"
    },
    {
      "constant": false,
      "inputs": [
        {
          "internalType": "string",
          "name": "_licenseValue",
          "type": "string"
        }
      ],
      "name": "setInstitution",
      "outputs": [],
      "payable": false,
      "stateMutability": "nonpayable",
      "type": "function"
    },
    {
      "constant": false,
      "inputs": [
        {
          "internalType": "address",
          "name": "_user",
          "type": "address"
        }
      ],
      "name": "sendCertification",
      "outputs": [],
      "payable": false,
      "stateMutability": "nonpayable",
      "type": "function"
    },
    {
      "constant": false,
      "inputs": [
        {
          "internalType": "address",
          "name": "_company",
          "type": "address"
        },
        {
          "internalType": "uint256",
          "name": "_span",
          "type": "uint256"
        }
      ],
      "name": "permitReference",
      "outputs": [],
      "payable": false,
      "stateMutability": "nonpayable",
      "type": "function"
    },
    {
      "constant": true,
      "inputs": [
        {
          "internalType": "address",
          "name": "_user",
          "type": "address"
        }
      ],
      "name": "getUserInfo",
      "outputs": [
        {
          "internalType": "bool",
          "name": "_allowReference",
          "type": "bool"
        },
        {
          "internalType": "uint256",
          "name": "_approveBlockNo",
          "type": "uint256"
        },
        {
          "internalType": "uint256",
          "name": "_refLimitBlockNo",
          "type": "uint256"
        },
        {
          "internalType": "address",
          "name": "_company",
          "type": "address"
        },
        {
          "internalType": "string",
          "name": "_name",
          "type": "string"
        },
        {
          "internalType": "address[]",
          "name": "_records",
          "type": "address[]"
        }
      ],
      "payable": false,
      "stateMutability": "view",
      "type": "function"
    }
  ],
  "bytecode": "0x608060405234801561001057600080fd5b50336000806101000a81548173ffffffffffffffffffffffffffffffffffffffff021916908373ffffffffffffffffffffffffffffffffffffffff160217905550610db9806100606000396000f3fe608060405234801561001057600080fd5b50600436106100625760003560e01c80630b017245146100675780636386c1c7146100b5578063d0020fad14610206578063da954350146102c1578063e2fcff7514610305578063ef01ccc4146103c0575b600080fd5b6100b36004803603604081101561007d57600080fd5b81019080803573ffffffffffffffffffffffffffffffffffffffff169060200190929190803590602001909291905050506104e9565b005b6100f7600480360360208110156100cb57600080fd5b81019080803573ffffffffffffffffffffffffffffffffffffffff169060200190929190505050610658565b60405180871515151581526020018681526020018581526020018473ffffffffffffffffffffffffffffffffffffffff1673ffffffffffffffffffffffffffffffffffffffff1681526020018060200180602001838103835285818151815260200191508051906020019080838360005b83811015610183578082015181840152602081019050610168565b50505050905090810190601f1680156101b05780820380516001836020036101000a031916815260200191505b50838103825284818151815260200191508051906020019060200280838360005b838110156101ec5780820151818401526020810190506101d1565b505050509050019850505050505050505060405180910390f35b6102bf6004803603602081101561021c57600080fd5b810190808035906020019064010000000081111561023957600080fd5b82018360208201111561024b57600080fd5b8035906020019184600183028401116401000000008311171561026d57600080fd5b91908080601f016020809104026020016040519081016040528093929190818152602001838380828437600081840152601f19601f820116905080830192505050505050509192919290505050610a2e565b005b610303600480360360208110156102d757600080fd5b81019080803573ffffffffffffffffffffffffffffffffffffffff169060200190929190505050610a88565b005b6103be6004803603602081101561031b57600080fd5b810190808035906020019064010000000081111561033857600080fd5b82018360208201111561034a57600080fd5b8035906020019184600183028401116401000000008311171561036c57600080fd5b91908080601f016020809104026020016040519081016040528093929190818152602001838380828437600081840152601f19601f820116905080830192505050505050509192919290505050610b31565b005b610402600480360360208110156103d657600080fd5b81019080803573ffffffffffffffffffffffffffffffffffffffff169060200190929190505050610b8b565b604051808060200180602001838103835285818151815260200191508051906020019080838360005b8381101561044657808201518184015260208101905061042b565b50505050905090810190601f1680156104735780820380516001836020036101000a031916815260200191505b50838103825284818151815260200191508051906020019080838360005b838110156104ac578082015181840152602081019050610491565b50505050905090810190601f1680156104d95780820380516001836020036101000a031916815260200191505b5094505050505060405180910390f35b60018060003373ffffffffffffffffffffffffffffffffffffffff1673ffffffffffffffffffffffffffffffffffffffff16815260200190815260200160002060000160006101000a81548160ff02191690831515021790555043600160003373ffffffffffffffffffffffffffffffffffffffff1673ffffffffffffffffffffffffffffffffffffffff16815260200190815260200160002060010181905550804301600160003373ffffffffffffffffffffffffffffffffffffffff1673ffffffffffffffffffffffffffffffffffffffff1681526020019081526020016000206002018190555081600160003373ffffffffffffffffffffffffffffffffffffffff1673ffffffffffffffffffffffffffffffffffffffff16815260200190815260200160002060030160006101000a81548173ffffffffffffffffffffffffffffffffffffffff021916908373ffffffffffffffffffffffffffffffffffffffff1602179055505050565b600080600080606080600160008873ffffffffffffffffffffffffffffffffffffffff1673ffffffffffffffffffffffffffffffffffffffff16815260200190815260200160002060000160009054906101000a900460ff169550600160008873ffffffffffffffffffffffffffffffffffffffff1673ffffffffffffffffffffffffffffffffffffffff168152602001908152602001600020600101549450600160008873ffffffffffffffffffffffffffffffffffffffff1673ffffffffffffffffffffffffffffffffffffffff168152602001908152602001600020600201549350600160008873ffffffffffffffffffffffffffffffffffffffff1673ffffffffffffffffffffffffffffffffffffffff16815260200190815260200160002060030160009054906101000a900473ffffffffffffffffffffffffffffffffffffffff1692508273ffffffffffffffffffffffffffffffffffffffff163373ffffffffffffffffffffffffffffffffffffffff161480156107e1575060011515861515145b80156107ec57508343105b8061084357506000809054906101000a900473ffffffffffffffffffffffffffffffffffffffff1673ffffffffffffffffffffffffffffffffffffffff163373ffffffffffffffffffffffffffffffffffffffff16145b8061087957508673ffffffffffffffffffffffffffffffffffffffff163373ffffffffffffffffffffffffffffffffffffffff16145b15610a2557600260008873ffffffffffffffffffffffffffffffffffffffff1673ffffffffffffffffffffffffffffffffffffffff1681526020019081526020016000206000018054600181600116156101000203166002900480601f0160208091040260200160405190810160405280929190818152602001828054600181600116156101000203166002900480156109545780601f1061092957610100808354040283529160200191610954565b820191906000526020600020905b81548152906001019060200180831161093757829003601f168201915b50505050509150600260008873ffffffffffffffffffffffffffffffffffffffff1673ffffffffffffffffffffffffffffffffffffffff168152602001908152602001600020600101805480602002602001604051908101604052809291908181526020018280548015610a1d57602002820191906000526020600020905b8160009054906101000a900473ffffffffffffffffffffffffffffffffffffffff1673ffffffffffffffffffffffffffffffffffffffff16815260200190600101908083116109d3575b505050505090505b91939550919395565b80600260003373ffffffffffffffffffffffffffffffffffffffff1673ffffffffffffffffffffffffffffffffffffffff1681526020019081526020016000206000019080519060200190610a84929190610cdf565b5050565b600260008273ffffffffffffffffffffffffffffffffffffffff1673ffffffffffffffffffffffffffffffffffffffff1681526020019081526020016000206001013390806001815401808255809150509060018203906000526020600020016000909192909190916101000a81548173ffffffffffffffffffffffffffffffffffffffff021916908373ffffffffffffffffffffffffffffffffffffffff1602179055505050565b80600360003373ffffffffffffffffffffffffffffffffffffffff1673ffffffffffffffffffffffffffffffffffffffff1681526020019081526020016000206001019080519060200190610b87929190610cdf565b5050565b6003602052806000526040600020600091509050806000018054600181600116156101000203166002900480601f016020809104026020016040519081016040528092919081815260200182805460018160011615610100020316600290048015610c375780601f10610c0c57610100808354040283529160200191610c37565b820191906000526020600020905b815481529060010190602001808311610c1a57829003601f168201915b505050505090806001018054600181600116156101000203166002900480601f016020809104026020016040519081016040528092919081815260200182805460018160011615610100020316600290048015610cd55780601f10610caa57610100808354040283529160200191610cd5565b820191906000526020600020905b815481529060010190602001808311610cb857829003601f168201915b5050505050905082565b828054600181600116156101000203166002900490600052602060002090601f016020900481019282601f10610d2057805160ff1916838001178555610d4e565b82800160010185558215610d4e579182015b82811115610d4d578251825591602001919060010190610d32565b5b509050610d5b9190610d5f565b5090565b610d8191905b80821115610d7d576000816000905550600101610d65565b5090565b9056fea265627a7a7231582093cff1b0da878bca494ceebd9c1d5a9bf9677848d487d421b7a405208455dcbd64736f6c63430005100032",
  "source": "pragma solidity >=0.4.22 <0.8.0;\r\n\r\ncontract UserCertification {\r\n    \r\n    address admin;\r\n    \r\n    // 사용자 정보\r\n    struct UserInfo {\r\n        string name;\r\n        address[] records;\r\n    }\r\n    \r\n    // 인증기관 정보\r\n    struct InstitutionInfo {\r\n        string name;\r\n        string licenseValue;\r\n    }\r\n    \r\n    // 채용기업 정보\r\n    struct CompanyInfo {\r\n     bool allowReference;\r\n     uint256 approveBlockNo;\r\n     uint256 refLimitBlockNo;\r\n     address company;\r\n    }\r\n    \r\n    mapping(address => CompanyInfo) companyInfo;\r\n    mapping(address => UserInfo) userInfo;\r\n    mapping(address => InstitutionInfo) public institutionInfo;\r\n    \r\n    // 생성자\r\n    constructor() public {\r\n        admin = msg.sender;\r\n    }\r\n    \r\n    // 사용자 정보 등록\r\n    function setUser(string memory _name) public {\r\n        userInfo[msg.sender].name = _name;\r\n    }\r\n    \r\n    // 기관이 자격증 정보 등록\r\n    function setInstitution(string memory _licenseValue) public {\r\n        institutionInfo[msg.sender].licenseValue = _licenseValue;\r\n    }\r\n    \r\n    // 인증기관이 자격증 정보 인증\r\n    function sendCertification(address _user) public {\r\n        userInfo[_user].records.push(msg.sender);\r\n    }\r\n    \r\n    // 사용자가 채용기업에게 정보 열람 허락\r\n    function permitReference(address _company, uint256 _span) public {\r\n        companyInfo[msg.sender].allowReference = true;\r\n        companyInfo[msg.sender].approveBlockNo = block.number;\r\n        companyInfo[msg.sender].refLimitBlockNo = block.number + _span;\r\n        companyInfo[msg.sender].company = _company;\r\n    }\r\n\r\n    // 채용기업이 정보 열람\r\n    function getUserInfo(address _user) public view returns (\r\n                                        bool _allowReference,\r\n                                        uint256 _approveBlockNo,\r\n                                        uint256 _refLimitBlockNo,\r\n                                        address _company,\r\n                                        string memory _name,\r\n                                        address[] memory _records) {\r\n        \r\n        _allowReference = companyInfo[_user].allowReference;\r\n        _approveBlockNo = companyInfo[_user].approveBlockNo;\r\n        _refLimitBlockNo = companyInfo[_user].refLimitBlockNo;\r\n        _company = companyInfo[_user].company;       \r\n        \r\n        // 채용기업이 열람 허락 받았으면 사용자 경력, 이력 정보 볼 수 있음\r\n        if (((msg.sender == _company) && (_allowReference == true) && (block.number < _refLimitBlockNo))\r\n            || (msg.sender == admin) || (msg.sender == _user)) {\r\n                _name = userInfo[_user].name;\r\n                _records = userInfo[_user].records;\r\n        }\r\n    }\r\n}",
  "sourcePath": "E:/portfolio_dapp_user/contracts/UserCertification.sol",
  "compiler": {
    "name": "solc",
    "version": "0.5.16+commit.9c3226ce.Emscripten.clang"
  },
  "schemaVersion": "3.2.5",
  "updatedAt": "2020-09-29T02:29:40.395Z",
  "devdoc": {
    "methods": {}
  },
  "userdoc": {
    "methods": {}
  }
}